{
  "contractName": "Verification",
  "abi": [
    {
      "constant": true,
      "inputs": [],
      "name": "flag",
      "outputs": [
        {
          "internalType": "bool",
          "name": "",
          "type": "bool"
        }
      ],
      "payable": false,
      "stateMutability": "view",
      "type": "function"
    },
    {
      "constant": true,
      "inputs": [
        {
          "internalType": "uint256",
          "name": "",
          "type": "uint256"
        }
      ],
      "name": "verifiers",
      "outputs": [
        {
          "internalType": "address",
          "name": "",
          "type": "address"
        }
      ],
      "payable": false,
      "stateMutability": "view",
      "type": "function"
    },
    {
      "constant": true,
      "inputs": [],
      "name": "getVerifiers",
      "outputs": [
        {
          "internalType": "address[]",
          "name": "",
          "type": "address[]"
        }
      ],
      "payable": false,
      "stateMutability": "view",
      "type": "function"
    },
    {
      "constant": false,
      "inputs": [
        {
          "internalType": "uint256",
          "name": "id",
          "type": "uint256"
        },
        {
          "internalType": "uint256",
          "name": "capacity",
          "type": "uint256"
        }
      ],
      "name": "verify",
      "outputs": [
        {
          "internalType": "uint256",
          "name": "",
          "type": "uint256"
        }
      ],
      "payable": false,
      "stateMutability": "nonpayable",
      "type": "function"
    }
  ],
  "bytecode": "0x60806040526000600160006101000a81548160ff02191690831515021790555034801561002b57600080fd5b506104568061003b6000396000f3fe608060405234801561001057600080fd5b506004361061004c5760003560e01c806341161b1014610051578063890eba681461009d578063a935e766146100bf578063ac1eff681461011e575b600080fd5b6100876004803603604081101561006757600080fd5b81019080803590602001909291908035906020019092919050505061018c565b6040518082815260200191505060405180910390f35b6100a5610277565b604051808215151515815260200191505060405180910390f35b6100c761028a565b6040518080602001828103825283818151815260200191508051906020019060200280838360005b8381101561010a5780820151818401526020810190506100ef565b505050509050019250505060405180910390f35b61014a6004803603602081101561013457600080fd5b8101908080359060200190929190505050610318565b604051808273ffffffffffffffffffffffffffffffffffffffff1673ffffffffffffffffffffffffffffffffffffffff16815260200191505060405180910390f35b60008083101561019b57600080fd5b60001515600160009054906101000a900460ff161515141561021857816040519080825280602002602001820160405280156101e65781602001602082028038833980820191505090505b50600090805190602001906101fc929190610354565b5060018060006101000a81548160ff0219169083151502179055505b336000848154811061022657fe5b9060005260206000200160006101000a81548173ffffffffffffffffffffffffffffffffffffffff021916908373ffffffffffffffffffffffffffffffffffffffff16021790555082905092915050565b600160009054906101000a900460ff1681565b6060600080548060200260200160405190810160405280929190818152602001828054801561030e57602002820191906000526020600020905b8160009054906101000a900473ffffffffffffffffffffffffffffffffffffffff1673ffffffffffffffffffffffffffffffffffffffff16815260200190600101908083116102c4575b5050505050905090565b6000818154811061032557fe5b906000526020600020016000915054906101000a900473ffffffffffffffffffffffffffffffffffffffff1681565b8280548282559060005260206000209081019282156103cd579160200282015b828111156103cc5782518260006101000a81548173ffffffffffffffffffffffffffffffffffffffff021916908373ffffffffffffffffffffffffffffffffffffffff16021790555091602001919060010190610374565b5b5090506103da91906103de565b5090565b61041e91905b8082111561041a57600081816101000a81549073ffffffffffffffffffffffffffffffffffffffff0219169055506001016103e4565b5090565b9056fea265627a7a723158201fb795a103bfb0c1b64d426e54ba831e9afbe3aa650c8192d83eb085c1d4c0e564736f6c63430005100032",
  "source": "pragma solidity ^0.5.0;\r\n\r\ncontract Verification {\r\n    address[] public verifiers;\r\n    bool public flag = false;\r\n\r\n    function getVerifiers() public view returns (address[] memory) {\r\n        return verifiers;\r\n    }\r\n\r\n    function verify(uint id, uint capacity) public returns (uint) {\r\n        require(id >= 0);\r\n        \r\n        if (flag == false) {\r\n            verifiers = new address[](capacity);\r\n            flag = true;\r\n        }\r\n\r\n        verifiers[id] = msg.sender;\r\n        return id;\r\n    }\r\n}",
  "sourcePath": "C:\\Painting-shop\\SourceCode\\contracts\\Verification.sol",
  "compiler": {
    "name": "solc",
    "version": "0.5.16+commit.9c3226ce.Emscripten.clang"
  },
  "schemaVersion": "3.4.11",
  "updatedAt": "2023-02-11T18:06:15.784Z",
  "networkType": "ethereum",
  "devdoc": {
    "methods": {}
  },
  "userdoc": {
    "methods": {}
  }
}